{
  "contractName": "CryptoMediumToken",
  "abi": [
    {
      "inputs": [],
      "payable": false,
      "stateMutability": "nonpayable",
      "type": "constructor"
    },
    {
      "constant": true,
      "inputs": [],
      "name": "totalSupply",
      "outputs": [
        {
          "internalType": "uint256",
          "name": "",
          "type": "uint256"
        }
      ],
      "payable": false,
      "stateMutability": "view",
      "type": "function"
    }
  ],
  "bytecode": "0x6080604052348015600f57600080fd5b506305f5e1006000819055506084806100296000396000f3fe6080604052348015600f57600080fd5b506004361060285760003560e01c806318160ddd14602d575b600080fd5b60336049565b6040518082815260200191505060405180910390f35b6000548156fea265627a7a723158205e6ff2a18cc0ae627c890f848b90289791fbebb16bc0db2a70e1addbda39fd7e64736f6c63430005100032",
  "source": "pragma solidity >=0.4.16 <0.7.0;\n\ncontract CryptoMediumToken {\n    //Constructor  this is the function which runs when a smart contract is deployed\n    // Set Total supply of tokens\n    // REad Total number of tokens\n    uint256 public totalSupply;\n    constructor() public {\n        totalSupply = 100000000;\n    }\n\n}",
  "sourcePath": "/Users/amit/blockchain Projects/ERC-20-Token-For-CM/contracts/CryptoMediumToken.sol",
  "compiler": {
    "name": "solc",
    "version": "0.5.16+commit.9c3226ce.Emscripten.clang"
  },
  "schemaVersion": "3.2.2",
  "updatedAt": "2020-07-19T12:37:28.800Z",
  "networkType": "ethereum",
  "devdoc": {
    "methods": {}
  },
  "userdoc": {
    "methods": {}
  }
}